:100000000C942A000C943F000C943F000C943F0089
:100010000C943F000C943F000C943F000C943F0064
:100020000C943F000C943F000C943F000C943F0054
:100030000C943F000C943F000C943F000C943F0044
:100040000C943F000C943F000C943F000C943F0034
:100050000C943F0011241FBECFE5D8E0DEBFCDBF1A
:1000600010E0A0E6B0E0E6EFF0E002C005900D92EF
:10007000A036B107D9F70E9472000C9479000C9455
:100080000000CF93DF93CDB7DEB784E390E02FEF8E
:10009000FC01208385E390E021E0FC01208387E3DD
:1000A00090E028E0FC0120838CE590E020E8FC0152
:1000B000208383E590E02DE4FC01208382E590E03D
:1000C000FC01108288E590E0FC018081882F90E09F
:1000D00082709927892B09F4F5CF00000000DF9189
:1000E000CF910895CF93DF93CDB7DEB70E94410043
:0600F000FFCFF894FFCFE2
:00000001FF
