:100000000C942A000C943F000C943F000C943F0089
:100010000C943F000C943F000C943F000C943F0064
:100020000C943F000C943F000C943F000C943F0054
:100030000C943F000C943F000C943F000C943F0044
:100040000C943F000C943F000C943F000C943F0034
:100050000C943F0011241FBECFE5D8E0DEBFCDBF1A
:1000600010E0A0E6B0E0E2E0FDE002C005900D92F5
:10007000AC38B107D9F70E9403020C947F060C94A8
:1000800000000F931F93CF93DF93CDB7DEB7C85611
:10009000D1090FB6F894DEBF0FBECDBF84E390E068
:1000A0002FEFFC01208385E390E02EEFFC012083FD
:1000B00087E390E02BE0FC01208388E390E022E0DE
:1000C000FC01208300E815E220E030E040E061E040
:1000D00088E00E94390283E590E024E6FC01208359
:1000E0008CE590E020E3FC01208382E590E0FC01B8
:1000F00010828CE590E0FC018081882F90E00196D1
:10010000092E000CAA0BBB0B072E7BE0880F991F52
:10011000AA1FBB1F7A95D1F7702D689413F8B69576
:10012000A795979587951694D1F79A8389838981A6
:100130009A819C01990F440B550B80E492E4AFE047
:10014000B0E0BC01CD010E947303DA01C9019C83B8
:100150008B838C818F938B818F9383E790E0892FA2
:100160008F9383E790E08F93CE010596292F2F93ED
:100170008F930E9495030F900F900F900F900F9008
:100180000F90CE0105960E944D0380E690E00E94FC
:100190004D0386E390E0FC018081882F90E080741D
:1001A0009927892B39F486E390E0FC01808188232C
:1001B0000CF096C086E390E0FC018081882F90E0EF
:1001C00080749927892B71F08CE590E0FC01808187
:1001D0008F3F41F08CE590E0FC0120812F5FFC0116
:1001E00020830DC08CE590E0FC018081882339F0EC
:1001F0008CE590E0FC0120812150FC0120838CE5FE
:1002000090E0FC018081882F90E00196092E000C7F
:10021000AA0BBB0B072E7BE0880F991FAA1FBB1FE1
:100220007A95D1F7702D689413F8B695A7959795A0
:1002300087951694D1F79A83898389819A819C0145
:10024000990F440B550B80E492E4AFE0B0E0BC01A1
:10025000CD010E947303DA01C9019C838B838C81D9
:100260008F938B818F9383E790E0892F8F9383E720
:1002700090E08F93CE010596292F2F938F930E94A4
:1002800095030F900F900F900F900F900F90CE014D
:1002900005960E944D038CE590E0FC018081882F3B
:1002A00090E0292F2F938F9389E790E0892F8F93E8
:1002B00089E790E08F93CE010596292F2F938F9396
:1002C0000E9495030F900F900F900F900F900F903A
:1002D000CE0105960E944D0382E390E00E940A023F
:1002E00086E390E0FC018081882F90E0807299275E
:1002F000892B09F44ECF8CE590E0FC01108288E355
:1003000090E028E330E0F90120812360FC012083A4
:100310008CE590E0FC018081882F90E00196092E09
:10032000000CAA0BBB0B072E7BE0880F991FAA1F9E
:10033000BB1F7A95D1F7702D689413F8B695A795E1
:10034000979587951694D1F79A83898389819A81A5
:100350009C01990F440B550B80E492E4AFE0B0E0B0
:10036000BC01CD010E947303DA01C9019C838B8318
:100370008C818F938B818F9383E790E0892F8F936C
:1003800083E790E08F93CE010596292F2F938F93CB
:100390000E9495030F900F900F900F900F900F9069
:1003A000CE0105960E944D038CE590E0FC01808112
:1003B000882F90E0292F2F938F9389E790E0892F42
:1003C0008F9389E790E08F93CE010596292F2F9385
:1003D0008F930E9495030F900F900F900F900F90A6
:1003E0000F90CE0105960E944D0382E390E00E949B
:1003F0000A0288E390E028E330E0F90120812E7FB3
:10040000FC012083C6CECF93DF93CDB7DEB70E9429
:100410004100FFCFCF93DF9300D000D000D0CDB705
:10042000DEB79E838D831C821B8212C01A821982C2
:1004300005C089819A8101969A83898389819A81ED
:1004400088359240B0F38B819C8101969C838B838D
:100450002B813C818D819E812817390738F300005C
:1004600026960FB6F894DEBF0FBECDBFDF91CF91B9
:1004700008950F931F93CF93DF93CDB7DEB72797E0
:100480000FB6F894DEBF0FBECDBF89836A834B835E
:100490000C831D832E833F838A81813051F480E455
:1004A00090E020E430E0F90120812062FC0120830B
:1004B00015C08A81823051F480E490E020E430E07D
:1004C000F90120812063FC01208308C080E490E0D2
:1004D00020E430E0F9012081FC0120838B81813010
:1004E00049F480E490E020E430E0F9012081FC014F
:1004F00020830CC08B81823049F480E490E020E4BA
:1005000030E0F90120812860FC0120838981882F57
:1005100090E087309105C9F08830910534F485303A
:100520009105D1F1069739F038C088309105B9F0BE
:100530000997F9F032C080E490E020E430E0F9015E
:1005400020812260FC01208328C080E490E020E428
:1005500030E0F90120812460FC0120831EC080E48A
:1005600090E020E430E0F90120812660FC01208346
:1005700014C08AE290E02AE230E0F9012081246090
:10058000FC01208380E490E020E430E0F901208148
:100590002660FC01208301C0000009E210E08C818C
:1005A0009D81AE81BF81880F991FAA1FBB1F880F35
:1005B000991FAA1FBB1F880F991FAA1FBB1F880F57
:1005C000991FAA1FBB1F9C01AD0180E094E2A4EF1C
:1005D000B0E0BC01CD010E947303DA01C901815072
:1005E000F801808300E410E08C819D81AE81BF81A1
:1005F000880F991FAA1FBB1F880F991FAA1FBB1F17
:10060000880F991FAA1FBB1F880F991FAA1FBB1F06
:100610009C01AD0180E094E2A4EFB0E0BC01CD010B
:100620000E947303DA01C9010197A109B109892F59
:100630009A2FAB2FBB27F80180838AE290E02AE251
:1006400030E0F90120812861FC0120830000279619
:100650000FB6F894DEBF0FBECDBFDF91CF911F91D3
:100660000F910895CF93DF931F92CDB7DEB78983A3
:1006700000008BE290E0FC018081882F90E0807286
:100680009927892BB1F38CE290E02981FC0120832A
:1006900000000F90DF91CF910895CF93DF9300D0AA
:1006A00000D0CDB7DEB79C838B838B819C819A83EE
:1006B00089830BC089819A81FC0180810E94320369
:1006C00089819A8101969A83898389819A81FC0123
:1006D0008081882379F700000F900F900F900F9082
:1006E000DF91CF910895A1E21A2EAA1BBB1BFD0139
:1006F0000DC0AA1FBB1FEE1FFF1FA217B307E40701
:10070000F50720F0A21BB30BE40BF50B661F771F58
:10071000881F991F1A9469F7609570958095909538
:100720009B01AC01BD01CF010895AEE0B0E0EBE963
:10073000F3E00C9456060D891E8986E08C831A839B
:1007400009838FEF9FE79E838D83AE01475E5F4FE6
:100750006F89788DCE0101960E94B703EF81F885ED
:10076000E00FF11F10822E96E4E00C947206ABE0CD
:10077000B0E0EDEBF3E00C9448066C017B018A01DC
:10078000FC0117821682838181FFCCC1CE010196C4
:100790003C01F6019381F70193FD859193FF8191CF
:1007A0007F01882309F4BAC1853239F493FD85911C
:1007B00093FF81917F01853229F4B60190E00E9478
:1007C000AE05E7CF912C212C312CFFE1F315D8F0A9
:1007D0008B3279F038F4803279F08332A1F4232D12
:1007E00020611DC08D3261F0803369F4232D2160BA
:1007F00016C0832D8260382EE32DE4603E2E2AC081
:10080000F32DF8601DC037FC2DC020ED280F2A30D5
:1008100040F08E32B9F436FC81C1232D2064322E93
:1008200019C036FE06C08AE0989E200D1124922E33
:1008300011C0EAE02E9E200D1124222EF32DF0622D
:100840003F2E08C08C3621F4832D8068382E02C0DC
:10085000883641F4F70193FD859193FF81917F01E3
:100860008111B3CF982F9F7D9554933028F40C5F5E
:100870001F4F9FE399830DC0833631F0833771F0AA
:10088000833509F059C021C0F801808189830E5F4A
:100890001F4F88248394912C530113C02801F2E048
:1008A0004F0E511CF801A080B18036FE03C0692DA7
:1008B00070E002C06FEF7FEFC5010E94A3054C01FD
:1008C0008201F32DFF773F2E16C0280122E0420E51
:1008D000511CF801A080B18036FE03C0692D70E084
:1008E00002C06FEF7FEFC5010E9498054C01F32D08
:1008F000F0683F2E820133FC1BC0822D90E08816E9
:100900009906B0F4B60180E290E00E94AE052A9408
:10091000F4CFF50137FC859137FE81915F01B60177
:1009200090E00E94AE0521102A9421E0821A9108DD
:100930008114910471F7E8C0843611F0893641F5CD
:10094000F80137FE07C060817181828193810C5F5D
:100950001F4F08C060817181072E000C880B990B16
:100960000E5F1F4FF32DFF763F2E97FF09C0909526
:100970008095709561957F4F8F4F9F4FF0683F2E08
:100980002AE030E0A3010E94EA05882E861845C0BF
:10099000853731F4232D2F7EB22E2AE030E025C09A
:1009A000932D997FB92E8F36C1F018F4883579F0E0
:1009B000B5C0803719F0883721F0B0C0E92FE06169
:1009C000BE2EB4FE0DC0FB2DF460BF2E09C034FE58
:1009D0000AC0292F2660B22E06C028E030E005C0EC
:1009E00020E130E002C020E132E0F801B7FE07C0AC
:1009F00060817181828193810C5F1F4F06C060818D
:100A0000718180E090E00E5F1F4FA3010E94EA0514
:100A1000882E8618FB2DFF773F2E36FE0DC0232D26
:100A20002E7FA22E891458F434FE0BC032FC09C06C
:100A3000832D8E7EA82E05C0B82CA32C03C0B82C05
:100A400001C0B92CA4FE0FC0FE01E80DF11D80818C
:100A5000803321F49A2D997EA92E09C0A2FE06C0EA
:100A6000B394B39404C08A2D867809F0B394A3FCA0
:100A700011C0A0FE06C0B21488F4280C922C9B185A
:100A80000EC0B21460F4B60180E290E00E94AE05A0
:100A9000B394F7CFB21418F42B1802C0982C212C61
:100AA000A4FE10C0B60180E390E00E94AE05A2FE55
:100AB00017C0A1FC03C088E790E002C088E590E081
:100AC000B6010CC08A2D867859F0A1FE02C08BE2D7
:100AD00001C080E2A7FC8DE2B60190E00E94AE0565
:100AE000891438F4B60180E390E00E94AE059A9430
:100AF000F7CF8A94F301E80DF11D8081B60190E0F3
:100B00000E94AE058110F5CF222009F442CEB60135
:100B100080E290E00E94AE052A94F6CFF60186812D
:100B2000978102C08FEF9FEF2B96E2E10C94640651
:100B3000FC010590615070400110D8F780959095A8
:100B40008E0F9F1F0895FC016150704001900110AD
:100B5000D8F7809590958E0F9F1F08950F931F9340
:100B6000CF93DF93FB01238121FD03C08FEF9FEF24
:100B70002CC022FF16C0468157812481358142173F
:100B8000530744F4A081B1819D012F5F3F4F318312
:100B900020838C93268137812F5F3F4F37832683B5
:100BA00014C08B01EC01FB010084F185E02D099557
:100BB000892BE1F6D80116968D919C911797019695
:100BC00017969C938E931697CE01DF91CF911F912C
:100BD0000F910895FA01AA27283051F1203181F1AF
:100BE000E8946F936E7F6E5F7F4F8F4F9F4FAF4F35
:100BF000B1E03ED0B4E03CD0670F781F891F9A1F48
:100C0000A11D680F791F8A1F911DA11D6A0F711DFB
:100C1000811D911DA11D20D009F468943F912AE007
:100C2000269F11243019305D3193DEF6CF010895EF
:100C3000462F4770405D4193B3E00FD0C9F7F6CF20
:100C4000462F4F70405D4A3318F0495D31FD4052E8
:100C5000419302D0A9F7EACFB4E0A695979587957E
:100C600077956795BA95C9F700976105710508955D
:100C70009B01AC010A2E0694579547953795279509
:100C8000BA95C9F7620F731F841F951FA01D0895A1
:100C90002F923F924F925F926F927F928F929F928C
:100CA000AF92BF92CF92DF92EF92FF920F931F937A
:100CB000CF93DF93CDB7DEB7CA1BDB0B0FB6F8942B
:100CC000DEBF0FBECDBF09942A88398848885F846B
:100CD0006E847D848C849B84AA84B984C884DF80DC
:100CE000EE80FD800C811B81AA81B981CE0FD11DC0
:100CF0000FB6F894DEBF0FBECDBFED010895F89496
:020D0000FFCF23
:100D0200447265687A61686C7374756665203078C0
:100D12003330002725640A2700447265687A6168C7
:0C0D22006C7374756665203078257800CD
:00000001FF
