S00B00004D50542E7372656328
S11300000C942A000C9434000C9434000C943400A6
S11300100C9434000C9434000C9434000C9434008C
S11300200C9434000C9434000C9434000C9434007C
S11300300C9434000C9434000C9434000C9434006C
S11300400C9434000C9434000C9434000C9434005C
S11300500C94340011241FBECFE5D8E0DEBFCDBF21
S11300600E943D000C9444000C940000CF93DF9355
S1130070CDB7DEB7DF91CF910895CF93DF93CDB79E
S10F0080DEB70E943600FFCFF894FFCFDB
S9030000FC
